{"abi":[{"type":"constructor","inputs":[{"name":"_value","type":"uint256","internalType":"uint256"}],"stateMutability":"nonpayable"},{"type":"function","name":"value","inputs":[],"outputs":[{"name":"","type":"uint256","internalType":"uint256"}],"stateMutability":"view"}],"bytecode":{"object":"0x608060405234801561001057600080fd5b506040516100b23803806100b283398101604081905261002f91610037565b600055610050565b60006020828403121561004957600080fd5b5051919050565b60548061005e6000396000f3fe6080604052348015600f57600080fd5b506004361060285760003560e01c80633fa4f24514602d575b600080fd5b603560005481565b60405190815260200160405180910390f3fea164736f6c6343000810000a","linkReferences":{}},"deployedBytecode":{"object":"0x6080604052348015600f57600080fd5b506004361060285760003560e01c80633fa4f24514602d575b600080fd5b603560005481565b60405190815260200160405180910390f3fea164736f6c6343000810000a","linkReferences":{}},"methodIdentifiers":{"value()":"3fa4f245"},"id":11}