{"abi":[{"type":"constructor","inputs":[{"name":"_worldIDIdentityManager","type":"address","internalType":"address"},{"name":"_scrollWorldIDAddress","type":"address","internalType":"address"},{"name":"_scrollMessengerAddress","type":"address","internalType":"address"}],"stateMutability":"nonpayable"},{"type":"function","name":"DEFAULT_SCROLL_GAS_LIMIT","inputs":[],"outputs":[{"name":"","type":"uint32","internalType":"uint32"}],"stateMutability":"view"},{"type":"function","name":"acceptOwnership","inputs":[],"outputs":[],"stateMutability":"nonpayable"},{"type":"function","name":"owner","inputs":[],"outputs":[{"name":"","type":"address","internalType":"address"}],"stateMutability":"view"},{"type":"function","name":"pendingOwner","inputs":[],"outputs":[{"name":"","type":"address","internalType":"address"}],"stateMutability":"view"},{"type":"function","name":"propagateRoot","inputs":[],"outputs":[],"stateMutability":"nonpayable"},{"type":"function","name":"renounceOwnership","inputs":[],"outputs":[],"stateMutability":"view"},{"type":"function","name":"scrollWorldIDAddress","inputs":[],"outputs":[{"name":"","type":"address","internalType":"address"}],"stateMutability":"view"},{"type":"function","name":"setGasLimitPropagateRoot","inputs":[{"name":"_scrollGasLimit","type":"uint32","internalType":"uint32"}],"outputs":[],"stateMutability":"nonpayable"},{"type":"function","name":"setGasLimitSetRootHistoryExpiry","inputs":[{"name":"_scrollGasLimit","type":"uint32","internalType":"uint32"}],"outputs":[],"stateMutability":"nonpayable"},{"type":"function","name":"setGasLimitTransferOwnershipScroll","inputs":[{"name":"_scrollGasLimit","type":"uint32","internalType":"uint32"}],"outputs":[],"stateMutability":"nonpayable"},{"type":"function","name":"setRootHistoryExpiry","inputs":[{"name":"_rootHistoryExpiry","type":"uint256","internalType":"uint256"}],"outputs":[],"stateMutability":"nonpayable"},{"type":"function","name":"transferOwnership","inputs":[{"name":"newOwner","type":"address","internalType":"address"}],"outputs":[],"stateMutability":"nonpayable"},{"type":"function","name":"transferOwnershipScroll","inputs":[{"name":"_owner","type":"address","internalType":"address"},{"name":"_isLocal","type":"bool","internalType":"bool"}],"outputs":[],"stateMutability":"nonpayable"},{"type":"function","name":"worldIDAddress","inputs":[],"outputs":[{"name":"","type":"address","internalType":"address"}],"stateMutability":"view"},{"type":"event","name":"OwnershipTransferStarted","inputs":[{"name":"previousOwner","type":"address","indexed":true,"internalType":"address"},{"name":"newOwner","type":"address","indexed":true,"internalType":"address"}],"anonymous":false},{"type":"event","name":"OwnershipTransferred","inputs":[{"name":"previousOwner","type":"address","indexed":true,"internalType":"address"},{"name":"newOwner","type":"address","indexed":true,"internalType":"address"}],"anonymous":false},{"type":"event","name":"OwnershipTransferredScroll","inputs":[{"name":"previousOwner","type":"address","indexed":true,"internalType":"address"},{"name":"newOwner","type":"address","indexed":true,"internalType":"address"},{"name":"isLocal","type":"bool","indexed":false,"internalType":"bool"}],"anonymous":false},{"type":"event","name":"RootPropagated","inputs":[{"name":"root","type":"uint256","indexed":false,"internalType":"uint256"}],"anonymous":false},{"type":"event","name":"SetGasLimitPropagateRoot","inputs":[{"name":"_scrollGasLimit","type":"uint32","indexed":false,"internalType":"uint32"}],"anonymous":false},{"type":"event","name":"SetGasLimitSetRootHistoryExpiry","inputs":[{"name":"_scrollGasLimit","type":"uint32","indexed":false,"internalType":"uint32"}],"anonymous":false},{"type":"event","name":"SetGasLimitTransferOwnershipScroll","inputs":[{"name":"_scrollGasLimit","type":"uint32","indexed":false,"internalType":"uint32"}],"anonymous":false},{"type":"event","name":"SetRootHistoryExpiry","inputs":[{"name":"rootHistoryExpiry","type":"uint256","indexed":false,"internalType":"uint256"}],"anonymous":false},{"type":"error","name":"AddressZero","inputs":[]},{"type":"error","name":"CannotRenounceOwnership","inputs":[]},{"type":"error","name":"GasLimitZero","inputs":[]}],"bytecode":{"object":"0x60e06040523480156200001157600080fd5b50604051620011a7380380620011a783398101604081905262000034916200015e565b6200003f33620000c7565b6001600160a01b03831615806200005d57506001600160a01b038216155b806200007057506001600160a01b038116155b156200008f57604051639fabe1c160e01b815260040160405180910390fd5b6001600160a01b0391821660805291811660c05290811660a05260018054909116693d0900003d0900003d0960a61b179055620001a8565b600180546001600160a01b0319169055620000ee81620000f1602090811b62000ccf17901c565b50565b600080546001600160a01b038381166001600160a01b0319831681178455604051919092169283917f8be0079c531659141344cd1fd0a4f28419497f9722a3daafe3b4186f6b6457e09190a35050565b80516001600160a01b03811681146200015957600080fd5b919050565b6000806000606084860312156200017457600080fd5b6200017f8462000141565b92506200018f6020850162000141565b91506200019f6040850162000141565b90509250925092565b60805160a05160c051610fa562000202600039600081816101e801526103e7015260008181610543015281816107680152610b3c01526000818161016301528181610570015281816107950152610b690152610fa56000f3fe608060405234801561001057600080fd5b50600436106100ea5760003560e01c806379ba50971161008c578063b665a5b211610066578063b665a5b2146101e3578063c70aa7271461020a578063e30c39781461021d578063f2fde38b1461023b57600080fd5b806379ba5097146101aa5780638da5cb5b146101b2578063a3b801a3146101d057600080fd5b80634ae46dfc116100c85780634ae46dfc1461011f578063611207b314610143578063715018a6146101565780637934aac01461015e57600080fd5b80631c56fe40146100ef5780632d8cb0eb14610104578063380db82914610117575b600080fd5b6101026100fd366004610df8565b61024e565b005b610102610112366004610df8565b61031a565b6101026103e3565b610129620f424081565b60405163ffffffff90911681526020015b60405180910390f35b610102610151366004610e4e565b61062e565b6101026108aa565b6101857f000000000000000000000000000000000000000000000000000000000000000081565b60405173ffffffffffffffffffffffffffffffffffffffff909116815260200161013a565b6101026108e4565b60005473ffffffffffffffffffffffffffffffffffffffff16610185565b6101026101de366004610df8565b61099e565b6101857f000000000000000000000000000000000000000000000000000000000000000081565b610102610218366004610e8a565b610a67565b60015473ffffffffffffffffffffffffffffffffffffffff16610185565b610102610249366004610ea3565b610c1f565b610256610d44565b60008163ffffffff1611610296576040517f90ecd8f500000000000000000000000000000000000000000000000000000000815260040160405180910390fd5b600180547fffffffffffffffff00000000ffffffffffffffffffffffffffffffffffffffff167401000000000000000000000000000000000000000063ffffffff8416908102919091179091556040519081527ffa2a99078de4d1b0d18381a1d80698c2798f5a987838280224694c908b4b7607906020015b60405180910390a150565b610322610d44565b60008163ffffffff1611610362576040517f90ecd8f500000000000000000000000000000000000000000000000000000000815260040160405180910390fd5b600180547bffffffffffffffffffffffffffffffffffffffffffffffffffffffff167c010000000000000000000000000000000000000000000000000000000063ffffffff8416908102919091179091556040519081527fcd632b2066e3e108c827cd63dc0676216a99cf9d7bc6728804f1a922c9ce75a99060200161030f565b60007f000000000000000000000000000000000000000000000000000000000000000073ffffffffffffffffffffffffffffffffffffffff1663d7b0fef16040518163ffffffff1660e01b8152600401602060405180830381865afa158015610450573d6000803e3d6000fd5b505050506040513d601f19601f820116820180604052508101906104749190610ebe565b905060008160405160240161048b91815260200190565b604080517fffffffffffffffffffffffffffffffffffffffffffffffffffffffffffffffe08184030181529181526020820180517bffffffffffffffffffffffffffffffffffffffffffffffffffffffff167ffbde929b0000000000000000000000000000000000000000000000000000000017905260015490517f5f7b157700000000000000000000000000000000000000000000000000000000815291925073ffffffffffffffffffffffffffffffffffffffff7f00000000000000000000000000000000000000000000000000000000000000001691635f7b1577916105bf917f000000000000000000000000000000000000000000000000000000000000000091600091879163ffffffff7401000000000000000000000000000000000000000090910416903390600401610ed7565b600060405180830381600087803b1580156105d957600080fd5b505af11580156105ed573d6000803e3d6000fd5b505050507fd8f3e639501c4b5e551a948a2930f1215556bcde417c94d45746a8ec6418366f8260405161062291815260200190565b60405180910390a15050565b610636610d44565b73ffffffffffffffffffffffffffffffffffffffff8216610683576040517f9fabe1c100000000000000000000000000000000000000000000000000000000815260040160405180910390fd5b60405173ffffffffffffffffffffffffffffffffffffffff831660248201528115156044820152600090606401604080517fffffffffffffffffffffffffffffffffffffffffffffffffffffffffffffffe08184030181529181526020820180517bffffffffffffffffffffffffffffffffffffffffffffffffffffffff167fb242e5340000000000000000000000000000000000000000000000000000000017905260015490517f5f7b157700000000000000000000000000000000000000000000000000000000815291925073ffffffffffffffffffffffffffffffffffffffff7f00000000000000000000000000000000000000000000000000000000000000001691635f7b1577916107ec917f000000000000000000000000000000000000000000000000000000000000000091600091879163ffffffff7c010000000000000000000000000000000000000000000000000000000090910416903390600401610ed7565b600060405180830381600087803b15801561080657600080fd5b505af115801561081a573d6000803e3d6000fd5b505050508273ffffffffffffffffffffffffffffffffffffffff1661085460005473ffffffffffffffffffffffffffffffffffffffff1690565b73ffffffffffffffffffffffffffffffffffffffff167fbd4d5130af38fda27b9d9a0d43a3c5ed04a5bebe38ad7ebf1b39620130d979fe8460405161089d911515815260200190565b60405180910390a3505050565b6108b2610d44565b6040517f77aeb0ad00000000000000000000000000000000000000000000000000000000815260040160405180910390fd5b600154339073ffffffffffffffffffffffffffffffffffffffff168114610992576040517f08c379a000000000000000000000000000000000000000000000000000000000815260206004820152602960248201527f4f776e61626c6532537465703a2063616c6c6572206973206e6f74207468652060448201527f6e6577206f776e6572000000000000000000000000000000000000000000000060648201526084015b60405180910390fd5b61099b81610dc7565b50565b6109a6610d44565b60008163ffffffff16116109e6576040517f90ecd8f500000000000000000000000000000000000000000000000000000000815260040160405180910390fd5b600180547fffffffff00000000ffffffffffffffffffffffffffffffffffffffffffffffff16780100000000000000000000000000000000000000000000000063ffffffff8416908102919091179091556040519081527fc48e688c0a2fc42ce36ecb7204c7b77f96132d253c141ef46c2591ae5a7763729060200161030f565b610a6f610d44565b600081604051602401610a8491815260200190565b604080517fffffffffffffffffffffffffffffffffffffffffffffffffffffffffffffffe08184030181529181526020820180517bffffffffffffffffffffffffffffffffffffffffffffffffffffffff167fc70aa7270000000000000000000000000000000000000000000000000000000017905260015490517f5f7b157700000000000000000000000000000000000000000000000000000000815291925073ffffffffffffffffffffffffffffffffffffffff7f00000000000000000000000000000000000000000000000000000000000000001691635f7b157791610bbc917f000000000000000000000000000000000000000000000000000000000000000091600091879163ffffffff780100000000000000000000000000000000000000000000000090910416903390600401610ed7565b600060405180830381600087803b158015610bd657600080fd5b505af1158015610bea573d6000803e3d6000fd5b505050507f9036872f40830f3909d8006c77be543a639ad4ebb34aff720498fcd12656a2928260405161062291815260200190565b610c27610d44565b6001805473ffffffffffffffffffffffffffffffffffffffff83167fffffffffffffffffffffffff00000000000000000000000000000000000000009091168117909155610c8a60005473ffffffffffffffffffffffffffffffffffffffff1690565b73ffffffffffffffffffffffffffffffffffffffff167f38d16b8cac22d99fc7c124b9cd0de2d3fa1faef420bfe791d8c362d765e2270060405160405180910390a350565b6000805473ffffffffffffffffffffffffffffffffffffffff8381167fffffffffffffffffffffffff0000000000000000000000000000000000000000831681178455604051919092169283917f8be0079c531659141344cd1fd0a4f28419497f9722a3daafe3b4186f6b6457e09190a35050565b60005473ffffffffffffffffffffffffffffffffffffffff163314610dc5576040517f08c379a000000000000000000000000000000000000000000000000000000000815260206004820181905260248201527f4f776e61626c653a2063616c6c6572206973206e6f7420746865206f776e65726044820152606401610989565b565b600180547fffffffffffffffffffffffff000000000000000000000000000000000000000016905561099b81610ccf565b600060208284031215610e0a57600080fd5b813563ffffffff81168114610e1e57600080fd5b9392505050565b803573ffffffffffffffffffffffffffffffffffffffff81168114610e4957600080fd5b919050565b60008060408385031215610e6157600080fd5b610e6a83610e25565b915060208301358015158114610e7f57600080fd5b809150509250929050565b600060208284031215610e9c57600080fd5b5035919050565b600060208284031215610eb557600080fd5b610e1e82610e25565b600060208284031215610ed057600080fd5b5051919050565b73ffffffffffffffffffffffffffffffffffffffff8616815260006020868184015260a0604084015285518060a085015260005b81811015610f275787810183015185820160c001528201610f0b565b50600060c0828601015260c07fffffffffffffffffffffffffffffffffffffffffffffffffffffffffffffffe0601f83011685010192505050610f72606083018563ffffffff169052565b73ffffffffffffffffffffffffffffffffffffffff83166080830152969550505050505056fea164736f6c6343000810000a","linkReferences":{}},"methodIdentifiers":{"DEFAULT_SCROLL_GAS_LIMIT()":"4ae46dfc","acceptOwnership()":"79ba5097","owner()":"8da5cb5b","pendingOwner()":"e30c3978","propagateRoot()":"380db829","renounceOwnership()":"715018a6","scrollWorldIDAddress()":"7934aac0","setGasLimitPropagateRoot(uint32)":"1c56fe40","setGasLimitSetRootHistoryExpiry(uint32)":"a3b801a3","setGasLimitTransferOwnershipScroll(uint32)":"2d8cb0eb","setRootHistoryExpiry(uint256)":"c70aa727","transferOwnership(address)":"f2fde38b","transferOwnershipScroll(address,bool)":"611207b3","worldIDAddress()":"b665a5b2"},"id":20}